:100000000C94D5000C94FD000C94FD000C94FD00A4
:100010000C94FD000C94FD000C94FD000C94FD006C
:100020000C94FD000C94FD000C945A0A0C94C90A1F
:100030000C94FD000C94FD000C94FD000C94FD004C
:100040000C94FD000C94FD000C94FD000C94FD003C
:100050000C94FD000C94FD000C94FD000C94530DC9
:100060000C94FD000C94210D0C94FB0C0C94FD00E1
:100070000C94FD000C94FD000C94FD000C94FD000C
:100080000C94FD000C94FD000C94FD000C94FD00FC
:100090000C94FD000C94FD000C94FD000C94FD00EC
:1000A0000C94FD000C94FD000C94FD0072756E2DF7
:1000B0006272696467650A000A000A0000000000B5
:1000C000250028002B002E0031000000000200094E
:1000D0000F0000030401000C0000000000000000FD
:1000E000000000000000000000080B0002020200F7
:1000F00000090400000102020000052400100105AF
:1001000024010101042402060524060001070581DB
:100110000310004009040100020A00000007050264
:100120000240000007058302400000040309041296
:10013000010002EF0201404123418000010102035E
:100140000141726475696E6F204C4C4300417264CA
:1001500075696E6F2059756E00000000002400273D
:10016000002A002D003000040802011040804010D9
:1001700020408040800802040180402010020110CD
:1001800080102040402004040404040304050202FB
:100190000202040302020202060606060606040420
:1001A000020202040400E00DD00D11241FBECFEFA7
:1001B000DAE0DEBFCDBF22E0A6E8B1E001C01D92CB
:1001C000A13DB207E1F711E0A0E0B1E0E4E1F7E220
:1001D00002C005900D92A638B107D9F710E0C4ED22
:1001E000D0E004C02197FE010E948511C33DD107D4
:1001F000C9F70E94CA0E0C947D130C940000FC01F8
:100200008091A101882311F13FB7F89482E0809397
:10021000E9002091F200822F90E01816190614F4DC
:1002200081E090E0882339F0289844E64093A001CB
:100230004091F1004083222339F02091F2002111F6
:1002400003C02BE62093E8003FBF08958FEF9FEF98
:1002500008952FB7F89483E08093E9009091E80027
:10026000892F807295FF04C09091F20080E4891B71
:100270002FBF08958091980181110DC082E0809375
:10028000940184E080939501109297011092960159
:1002900081E08093980184E991E008950895409168
:1002A0008D0150918E0120918B0130918C0142176C
:1002B0005307B4F49091E8009570E1F39091E80051
:1002C00092FD19C08093F10080918D0190918E0173
:1002D00001968F739927892B19F48EEF8093E8008C
:1002E00080918D0190918E01019690938E01809363
:1002F0008D0181E0089580E00895DF92EF92FF92F2
:100300000F931F93CF93DF93D82E8A01EB017B01CC
:10031000E40EF51ECE15DF0559F0D7FE12C0FE0122
:1003200084910E944F0121968111F4CF0FEF1FEFAE
:10033000C801DF91CF911F910F91FF90EF90DF9057
:1003400008958881EECF0F931F93CF93DF931F9271
:10035000CDB7DEB782E0898342E450E069EE70E019
:1003600080E80E947D010E943A01DC0112960D9105
:100370001C910115110589F0D801ED91FC910280C5
:10038000F381E02DBE016F5F7F4FC801099597FD96
:1003900004C0F80100851185ECCF89810F90DF91B1
:1003A000CF911F910F910895615030F02091F1008D
:1003B000FC0120830196F8CF289884E68093A00161
:1003C0000895EF92FF920F931F93CF93DF938C01C9
:1003D0007B01D0E0C0E0F701EC0FFD1F64916623C4
:1003E00061F0D801ED91FC910190F081E02DC80100
:1003F0000995892B11F02196EECFCE01DF91CF9197
:100400001F910F91FF90EF900895AF92BF92CF92FE
:10041000DF92EF92FF920F931F93CF93DF936C01C4
:100420007B018B01040F151FEB015E01AE18BF08A5
:10043000C017D10759F06991D601ED91FC91019057
:10044000F081E02DC6010995892B79F7C501DF916F
:10045000CF911F910F91FF90EF90DF90CF90BF90C1
:10046000AF900895FC01538D448D252F30E0842FEB
:1004700090E0821B930B541710F0CF9608950197CC
:100480000895FC01918D828D981761F0A28DAE0FB9
:10049000BF2FB11D5D968C91928D9F5F9F73928F40
:1004A00090E008958FEF9FEF0895FC01918D828D6C
:1004B000981731F0828DE80FF11D858D90E0089539
:1004C0008FEF9FEF0895FC01918D228D892F90E091
:1004D000805C9F4F821B91098F739927089582E05A
:1004E00092E00E94630221E0892B09F420E0822F30
:1004F000089580E090E0892B29F00E946F0281111D
:100500000C9400000895FC01A48DA80FB92FB11D13
:10051000A35ABF4F2C91848D90E001968F73992739
:10052000848FA689B7892C93A089B1898C91827414
:100530008C93938D848D981306C00288F389E02DE7
:1005400080818F7D80830895EF92FF920F931F9398
:10055000CF93DF93EC0181E0888F9B8D8C8D981376
:1005600019C0E889F989808185FF14C09FB7F89484
:10057000EE89FF896083E889F989808182748083AC
:100580009FBF81E090E0DF91CF911F910F91FF908D
:10059000EF900895F62E0B8D10E00F5F1F4F0F7335
:1005A0001127E02E8C8D8E110CC00FB607FCFACFF0
:1005B000E889F989808185FFF5CFCE010E94830209
:1005C000F1CFEB8DEC0FFD2FF11DE35AFF4FF082C1
:1005D0009FB7F8940B8FEA89FB8980818062CFCF27
:1005E000CF93DF93EC01888D8823B9F0AA89BB896A
:1005F000E889F9898C9185FD03C0808186FD0DC055
:100600000FB607FCF7CF8C9185FFF2CF808185FF75
:10061000EDCFCE010E948302E9CFDF91CF91089503
:10062000CF93DF931F92CDB7DEB76983DC01ED91E5
:10063000FC910280F381E02D41E050E0BE016F5F4C
:100640007F4F09950F90DF91CF91089583E08093BC
:10065000E9008091F200882319F08AE38093E80092
:1006600008950E94290190E00895CF93DF931F928F
:10067000CDB7DEB7FC018485958597FD08C02FEFC7
:100680003FEF358724870F90DF91CF910895CE01FA
:1006900001960E94FF00019719F4898190E0F3CF41
:1006A0008FEF9FEFF0CF0F931F93CF93DF931F92A6
:1006B000CDB7DEB78C01FC018485958597FF0BC013
:1006C000CE0101960E94FF00019771F4898190E0AC
:1006D000F80195878487F801848595850F90DF91CF
:1006E000CF911F910F9108958FEF9FEFF1CFFC01F4
:1006F0008485958597FD0BC09FB7F89482E0809321
:10070000E9008091F2009FBF90E0019608959FB7A5
:10071000F89482E08093E9008091F2009FBF90E01E
:100720000895282F30E0F901E653FF4F9491F90125
:10073000E959FE4F84912A573E4FF9012491222313
:1007400009F430C09923E9F091509F30D0F4E92F9B
:10075000F0E0E355FC4F0C948511DB03DF03BC0391
:10076000D303D703C103C103C103E203E803EC03CE
:10077000F003F603C103FA03909180009F779093F2
:100780008000E22FF0E0EE0FFF1FE454FF4FA59131
:10079000B4919FB7F894EC91611132C080958E238B
:1007A0008C939FBF0895909180009F7DE8CF90919A
:1007B0008000977FE4CF94B59F7794BDE2CF94B546
:1007C0009F7DFBCF909190009F7790939000D9CF21
:1007D000909190009F7DF9CF90919000977FF5CFF9
:1007E0009091C0009F779093C000CBCF9091C000B4
:1007F0009F7DF9CF9091C200977F9093C200C1CFA7
:100800008E2BCECFCF93DF9390E0FC01E959FE4FC2
:1008100024918A579E4FFC0184918823D1F090E067
:10082000880F991FFC01E75AFE4FA591B491FC0176
:10083000E454FF4FC591D491623071F49FB7F8949E
:100840003C91822F809583238C93E8812E2B2883E3
:100850009FBFDF91CF9108958FB7F894EC912E2B25
:100860002C938FBFF6CF3FB7F8948091870190917A
:100870008801A0918901B0918A0126B5A89B05C085
:100880002F3F19F00196A11DB11D3FBFBA2FA92F0F
:10089000982F8827BC01CD01620F711D811D911D0C
:1008A00042E0660F771F881F991F4A95D1F7089578
:1008B0008F929F92AF92BF92CF92DF92EF92FF9270
:1008C0004B015C010E9433046B017C010E943304E4
:1008D0006C197D098E099F09683E73408105910559
:1008E000A8F321E0821A9108A108B10888EEC80E89
:1008F00083E0D81EE11CF11C81149104A104B10411
:1009000029F7FF90EF90DF90CF90BF90AF909F902E
:100910008F9008958F929F92AF92BF92CF92DF9265
:10092000EF92FF920F931F93CF93DF936C017B01A4
:100930008A0180910B01882309F45CC08091A10198
:10094000882309F457C08091910180FF05C08091F0
:10095000E00082608093E000E801B12C8AEFA82ECD
:1009600093E0892E2AE3922E209711F4BB20D9F12F
:100970000E94290181110AC0AA94AA20D9F161E03C
:1009800070E080E090E00E945804EECF8C171D06C6
:1009900011F00CF08C2F9FB7F8948092E900209111
:1009A000E80025FD02C09FBFDFCF282F30E0C21B2B
:1009B000D30BF701815020F041914093F100FACF21
:1009C000E20EF31EBB2021F09092E800B12CEBCF99
:1009D0008091E80085FDE7CF9092E800BB24B394B6
:1009E000209709F3F3CF5D9884E680939001101669
:1009F00011063CF081E090E0F6019383828310E0E1
:100A000000E0C801DF91CF911F910F91FF90EF900F
:100A1000DF90CF90BF90AF909F908F90089590E01F
:100A200080E00895CF93DF93EC018D819E81DC01FE
:100A3000ED91FC910084F185E02D099518161906B9
:100A400054F48D819E81DC01ED91FC910284F3854B
:100A5000E02D0995EACFDF91CF9108958F929F9273
:100A6000AF92BF92CF92DF92EF92FF92CF93DF933C
:100A7000EC018FB7F8948090A2019090A301A09010
:100A8000A401B090A5018FBF6B01F12CE12C8D81E9
:100A90009E81DC01ED91FC910284F385E02D0995A6
:100AA00097FF16C02FB7F8948091A2019091A301EF
:100AB000A091A401B091A5012FBF88199909AA0995
:100AC000BB098C159D05AE05BF0508F38FEF9FEFA1
:100AD000DF91CF91FF90EF90DF90CF90BF90AF90DC
:100AE0009F908F900895FC01238134812627022E48
:100AF0002295207F2025032E322F22952F7002264B
:100B0000269532272327220F220F220F20253483F8
:100B1000238308952F923F924F925F926F927F921C
:100B20008F929F92AF92BF92CF92DF92EF92FF92FD
:100B30000F931F93CF93DF93CDB7DEB72A970FB6EE
:100B4000F894DEBF0FBECDBF9A8789875B0129016C
:100B500037011A01200E311E3A82198288248A94A4
:100B6000982C9A01260F371F3E832D83C801840DD0
:100B7000951D98878F83A985BA8518968C91B98120
:100B8000B81708F040C1E985FA859482838285818F
:100B90009681DC01ED91FC910190F081E02D6FEFE9
:100BA00009956FEF89859A850E947305E985FA8515
:100BB00085819681DC01ED91FC910190F081E02D21
:100BC000A985BA856C910995E985FA856081CF017F
:100BD0000E947305A985BA8515968D919C91DC01BB
:100BE000ED91FC910190F081E02D6A8109956A8177
:100BF00089859A850E947305E985FA8585819681A4
:100C0000DC01ED91FC910190F081E02D622D0995C0
:100C1000622D89859A850E9473058501E985FA858B
:100C200085819681DC01ED91FC910190F081E02DB0
:100C30002D813E8120173107E1F48201E985FA8593
:100C400085819681DC01ED91FC910190F081E02D90
:100C50002F81388520173107C1F0D8016D918D01A2
:100C60000995F8013197608189859A850E947305FD
:100C7000E5CFD8016D918D010995F801319760811B
:100C800089859A850E947305C9CFA985BA8514966E
:100C90006C910995E985FA8585819681DC01ED9154
:100CA000FC910190F081E02DA985BA8513966C9195
:100CB000099568EC70E089859A850E942E058F3F22
:100CC000910509F092C0E985FA85948283826FEFDD
:100CD000CF010E94730565E070E089859A850E94C6
:100CE0002E05A985BA856C916817190609F07DC093
:100CF000CD010E9473056AE070E089859A850E94A3
:100D00002E057C0197FD71C0682F89859A850E9408
:100D100073056AE070E089859A850E942E058C0132
:100D200097FD63C0682F89859A850E947305EC82C0
:100D30001B82EB81FC810E0F1F1FF12CE12C65E063
:100D400070E089859A850E151F05A1F0EC14FD044D
:100D500089F00E942E0597FD09C0F301EE0DFF1DDD
:100D60008083682F89859A850E947305FFEFEF1AAB
:100D7000FF0AE5CF0E942E057C0197FD36C065E095
:100D800070E089859A850E942E0597FD2EC0FE2C65
:100D9000EE248E0D9F1DA985BA8513962D913C9149
:100DA00014978217930709F58C918F5F8C93C80174
:100DB000C016D10608F4C6012A960FB6F894DEBF15
:100DC0000FBECDBFDF91CF911F910F91FF90EF909C
:100DD000DF90CF90BF90AF909F908F907F906F905B
:100DE0005F904F903F902F900895B981BF5FB98376
:100DF00064E670E080E090E00E94580489859A855E
:100E00000E941205B8CE8FEF9FEFD6CF8F929F92A0
:100E1000AF92BF92CF92DF92EF92FF920F931F9308
:100E2000CF93DF931F92CDB7DEB75C019B014A01E0
:100E3000DC0152968C91811128C08B017B01E40E5C
:100E4000F51E0E151F0591F1D50155962D913C917A
:100E500056975396EC91539781E08E0F53968C934F
:100E6000D8018D918D01E20FF32FF11D8083F501E3
:100E7000938984899813E5CF0190F081E02D068055
:100E8000F781E02DC5010995DCCF80E58983D12C60
:100E9000C12CF12CE12C8A0141E050E0BE016F5FD2
:100EA0007F4FF501848595850E948A05C4010F90C6
:100EB000DF91CF911F910F91FF90EF90DF90CF9036
:100EC000BF90AF909F908F900895AF92BF92CF92B6
:100ED000DF92EF92FF920F931F93CF93DF9300D097
:100EE000CDB7DEB7FC01268521111AC05C0117863B
:100EF00080E7898380E28A83E088F18880E2C82ED7
:100F0000D12C10E000E030E020E042E050E0BE01F3
:100F10006F5F7F4F848595850E948A05F5018687DE
:100F20000F900F90DF91CF911F910F91FF90EF9055
:100F3000DF90CF90BF90AF900895CF93DF93EC01F7
:100F40000E9465078E8590E0DF91CF910895CF9341
:100F5000DF93EC010E9465078E85882359F0EF85A9
:100F600088899989E80FF92FF11D808190E0DF9140
:100F7000CF9108958FEF9FEFFACFCF93DF93EC01DE
:100F80000E9465078E85882381F081508E8788892D
:100F90009989EF8521E02E0F2F87E80FF92FF11D9A
:100FA000808190E0DF91CF9108958FEF9FEFFACF8E
:100FB0002FB7F8948091A2019091A301A091A40170
:100FC000B091A5012FBF8093BE029093BF02A09362
:100FD000C002B093C10286EB92E00E94BD0797FF6A
:100FE00026C02FB7F8948091A2019091A301A091FF
:100FF000A401B091A5012FBF4091BE025091BF0244
:101000006091C0027091C102841B950BA60BB70BB7
:101010004091BA025091BB026091BC027091BD0236
:1010200084179507A607B707B0F28FEF9FEF0895D3
:10103000CF92DF92EF92FF920F931F93D12CC12C8E
:10104000F12CE12C10E000E030E020E00E948A0565
:101050001F910F91FF90EF90DF90CF900895CF9365
:10106000DF93FC01228921110BC0EC01438950E080
:1010700065897689848595850E94180881E08B8B27
:10108000DF91CF910895CF93DF9300D0CDB7DEB736
:10109000DC0152968C9152978823A1F080E58983D8
:1010A0006A8342E050E0BE016F5F7F4F1C968D91D6
:1010B0009C910E94180881E090E00F900F90DF91C2
:1010C000CF91089555968D919C9156975396EC919A
:1010D000539721E02E0F53962C935397E80FF92F37
:1010E000F11D608353969C91539754968C9154971D
:1010F0009813E1CFED91FC9111970680F781E02DD7
:10110000CD010995D8CF8F929F92AF92BF92CF9287
:10111000DF92EF92FF920F931F93CF93DF93CDB7A0
:10112000DEB72E970FB6F894DEBF0FBECDBFDC0141
:1011300017962C9117972111BBC05C0181E0FD012E
:101140008783C5010E94120568EE73E080E090E09D
:101150000E945804D50115968D919C91DC01ED916A
:10116000FC910084F185E02D0995181619064CF3C1
:101170009924939492E3892E85E0E2E1F1E0DE0187
:10118000169601900D928A95E1F7F501908645E05B
:1011900050E0BE016A5F7F4FC5010E941808D5016B
:1011A00015968D919C91DC01ED91FC910190F0815F
:1011B000E02D63E009956AEF70E080E090E00E9426
:1011C00058046AEB70E0F501858196810E94E10187
:1011D0006AEF70E080E090E00E94580468EB70E0F5
:1011E000D50115968D919C910E94E10164EF71E00B
:1011F00080E090E00E9458046CEA70E0F50185817F
:1012000096810E94E10164EF71E080E090E00E942D
:101210005804C5010E94120585E0E7E1F1E0DE0116
:10122000119601900D928A95E1F7D50118968C924E
:1012300084E0C82ED12CFE013B967F0110E000E037
:1012400030E020E045E050E0BE016F5F7F4FC50118
:101250000E948A058F3F980739F468EE73E080E0BA
:1012600090E00E94580488CF2B852111FFCF04976E
:1012700091F52C852053330B44E6429FC001439FD8
:10128000900D11242D853AE0239F800D911D11248E
:10129000805E91402E852053330B820F931FD50122
:1012A00012969C938E93119782E3D50118968C9396
:1012B0002E960FB6F894DEBF0FBECDBFDF91CF9153
:1012C0001F910F91FF90EF90DF90CF90BF90AF9064
:1012D0009F908F90089584E690E0F501928381833A
:1012E000E3CF8091C80281110BC08091CB02909115
:1012F000CC02009711F00E94271281E08093C8026F
:101300008091C6029091C702009731F00E94271287
:101310001092C7021092C6020895FB0101900020AE
:10132000E9F73197AF01461B570BDC01ED91FC91BA
:101330000280F381E02D09948F929F92AF92BF9229
:10134000EF92FF920F931F93CF93DF93CDB7DEB74A
:10135000A1970FB6F894DEBF0FBECDBF7C01FA0196
:10136000CB0119A2223008F42AE08E010F5D1F4F35
:10137000822E912CB12CA12CBF01A50194010E94B9
:101380006311F901CA016A300CF5605DD8016E93F2
:101390008D01232B242B252B79F790E080E01097EB
:1013A00021F0BD01C7010E948D09A1960FB6F894E6
:1013B000DEBF0FBECDBFDF91CF911F910F91FF9088
:1013C000EF90BF90AF909F908F900895695CDECFB3
:1013D0000F931F93CF93DF93EC018881998100973E
:1013E00059F02A813B812617370730F081E0DF91E1
:1013F000CF911F910F9108958B016F5F7F4F0E94D6
:10140000B012009759F0998388831B830A832C813B
:101410003D81232B59F7FC011082E8CF80E0E7CF14
:101420008F929F92AF92BF92CF92DF92EF92FF92F4
:101430000F931F93CF93DF937C01EB016C0182E04C
:10144000C80ED11C4701E5E08E0E911C10E000E0B3
:10145000F60141916F0150E070E060E02AE0CE01BA
:101460000E949C095C01E881F9810190F081E02DE6
:101470006EE2CE0109958A0D9B1D080F191FC81435
:10148000D90431F7F701458150E070E060E02AE0CF
:10149000CE010E949C09800F911FDF91CF911F9177
:1014A0000F91FF90EF90DF90CF90BF90AF909F9003
:1014B0008F9008951F920F920FB60F9211248F9361
:1014C0009F938091E1009091E100937F9093E100E0
:1014D00083FF0FC01092E90091E09093EB0010920F
:1014E000EC0092E39093ED001092A10198E09093AC
:1014F000F00082FF22C093E09093E9009091F20007
:10150000992319F09AE39093E80090919001992320
:1015100041F090919001915090939001911101C0F0
:101520005D9A9091A001992341F09091A001915072
:101530009093A001911101C0289A84FF18C0809156
:10154000E2008E7E81608093E2008091E1008F7ED8
:101550008093E100809191018E7E80618093910162
:101560009F918F910F900FBE0F901F90189580FF45
:10157000F7CF8091E2008E7E80618093E2008091BF
:10158000E1008E7E8093E100809191018E7E8160EA
:10159000E5CF1F920F920FB60F921124CF92DF92D8
:1015A000EF92FF920F931F932F933F934F935F936D
:1015B0006F937F938F939F93AF93BF93EF93FF931B
:1015C000CF93DF93CDB7DEB76C97DEBFCDBF109260
:1015D000E9008091E80083FF25C068E0CE014596D0
:1015E0000E94D40182EF8093E8008D8987FF39C083
:1015F0009091E80090FFFCCF982F907609F034C1CD
:101600009E894F89588D2F89F88C911131C080386F
:1016100061F5809192018093F1001092F1008EEFBC
:101620008093E8006C960FB6F894DEBF0FBECDBF76
:10163000DF91CF91FF91EF91BF91AF919F918F91EA
:101640007F916F915F914F913F912F911F910F91DA
:10165000FF90EF90DF90CF900F900FBE0F901F90F4
:1016600018959EEF9093E800C7CF1092F100D5CF68
:10167000913059F48111D3CF4130510581F68091D9
:1016800092018D7F80939201CACF933049F48111EA
:10169000C6CF4130510519F6809192018260F2CF98
:1016A000953041F48091E80080FFFCCF20682093C2
:1016B000E300B5CF963009F0A9C00B8D1C8D22E058
:1016C0001092E90010928E0110928D01F2122EC03C
:1016D00010928C0110928B010E94A3011F8299E04D
:1016E0009983FA8291E09E8390EA98879AEF99878E
:1016F00020918D0130918E01275F3F4F3C832B83DA
:101700008D831092E90010928E0110928D0110933A
:101710008C0100938B0149E050E0BE016F5F7F4F69
:1017200080E00E947D010E94A30179CF10938C017B
:1017300000938B010E943A01DC0112960D911C91DD
:101740000115110509F451C1D801ED91FC910480F6
:10175000F581E02DBE016B5E7F4FC80109950097B2
:1017600009F03EC1F80100851185EACFF3E0FF12D0
:101770000EC08F89882309F440C0823061F440E8AC
:101780006BE08DE491E00E949D0D811148CF81E2D4
:101790008093EB0047CF813029F440E86BE081E48F
:1017A00091E0F1CF833099F70E943A01DC01129663
:1017B000ED90FC908E010F5F1F4F6801E114F10462
:1017C00079F0D701ED91FC910680F781E02DB80109
:1017D000C7010995080F111DF701E084F184EECFD0
:1017E000D8011C92F60101900020E9F73197BF0162
:1017F0006C197D0940E0C601C6CF6BE271E0FB01C8
:10180000449150E080E80E947D0109CF973009F4AF
:10181000BECF983021F481E08093F10000CF993061
:1018200009F0FDCE837009F0B2CFEDE1F1E081E087
:1018300031E096E32191222371F08093E900309307
:10184000EB00DF0111972C912093EC009093ED00B9
:101850008F5F873079F78EE78093EA001092EA0075
:101860008F898093A101DBCE8B8D9C8D1092E90036
:1018700010928E0110928D0190938C0180938B01B8
:10188000898D811192C08E899D89913A49F4813266
:1018900009F07DCF47E050E064E071E080E0B3CF35
:1018A000913209F074CF833269F48F89988DB0E05A
:1018B000A0E08093000190930101A0930201B093F6
:1018C0000301ADCE803269F48091E80082FFFCCF45
:1018D00067E084E091E00E94D4018BEF8093E80000
:1018E0009ECE823209F09BCE8F8980930B01EEEF62
:1018F000FFE7859194918B3F9C4D51F1E0E0F8E03A
:101900008091040190910501A0910601B091070119
:10191000803B9440A105B105F1F480910B0180FD5D
:101920001AC0EE3F8AE0F80789F587E797E79183C9
:1019300080838091600080938F0188E19BE00FB6E7
:10194000F894A895809360000FBE9093600067CED6
:10195000EEEFFAE0D5CF808191818737974709F084
:101960005ECEA89580916000886180936000809130
:101970008F0180936000EE3F2AE0F20789F08091AA
:10198000FE0A9091FF0A9183808349CE80819181E4
:101990008737980751F29093FF0A8093FE0AC5CFCC
:1019A0001092FF0A1092FE0A3ACE0E943A01DC0120
:1019B00012960D911C910115110509F4E8CED8017C
:1019C000ED91FC910190F081E02DBE016B5E7F4FA7
:1019D000C8010995811123CEF80100851185EBCF4F
:1019E000181619060CF41BCED2CEF1E0FF12BECEB3
:1019F0006FE271E004CF1F920F920FB60F92112485
:101A00002F933F934F935F936F937F938F939F9306
:101A1000AF93BF93EF93FF9382E092E00E94830223
:101A2000FF91EF91BF91AF919F918F917F916F91B6
:101A30005F914F913F912F910F900FBE0F901F908C
:101A400018951F920F920FB60F9211242F938F9318
:101A50009F93EF93FF93E0911202F0911302808124
:101A6000E0911802F091190282FD1BC090818091D3
:101A70001B028F5F8F7320911C02821741F0E0914F
:101A80001B02F0E0EE5FFD4F958F80931B02FF91EC
:101A9000EF919F918F912F910F900FBE0F901F90FC
:101AA00018958081F4CF1F920F920FB60F921124D8
:101AB0002F933F938F939F93AF93BF938091A201F6
:101AC0009091A301A091A401B091A501309186014C
:101AD00023E0230F2D3758F50196A11DB11D20934A
:101AE00086018093A2019093A301A093A401B093D7
:101AF000A5018091870190918801A0918901B09101
:101B00008A010196A11DB11D8093870190938801E0
:101B1000A0938901B0938A01BF91AF919F918F915A
:101B20003F912F910F900FBE0F901F90189526E8B0
:101B3000230F0296A11DB11DD2CFEF92FF920F93FA
:101B40001F93CF93DF93F82E192FE62E042F81E0F9
:101B5000860F880F0E944F0183E00E944F01CF2D16
:101B6000D12FEC0EFD2EF11CCE15DF05B9F007FFCD
:101B700013C0FE0184910E944F01182F80E00E9443
:101B80004F01812321968111EFCFDF91CF911F91DA
:101B90000F91FF90EF9008958881EDCF81E0F5CF10
:101BA0008091B0029091B102009711F00E9427122B
:101BB00081E591E09093B7028093B6020C9471098D
:101BC00022E032E0109205021092040288EE93E0C7
:101BD000A0E0B0E08093060290930702A093080271
:101BE000B093090247E251E050930302409302028E
:101BF0004DEC50E050930F0240930E024CEC50E03D
:101C0000509311024093100248EC50E0509313029D
:101C10004093120249EC50E0509315024093140295
:101C20004AEC50E050931702409316024EEC50E0FD
:101C3000509319024093180210921B0210921C023A
:101C400010921D0210921E021092A9011092A8017A
:101C50008093AA019093AB01A093AC01B093AD0126
:101C600049E351E05093A7014093A6014FEF5FEF86
:101C70005093B3014093B2011092B9021092B8028E
:101C80008093BA029093BB02A093BC02B093BD02B2
:101C900081E591E09093B7028093B6028FE992E0DC
:101CA0009093C3028093C2021092C4021092C502A4
:101CB0001092C7021092C60281E08093C8028BE4A2
:101CC00091E09093F7018093F6011092F801109241
:101CD000F9011092FA011092FB019093FD0180939B
:101CE000FC011092FE011092FF011092000210926E
:101CF000010210929F023093A5022093A402109239
:101D0000A6021092A7023093A9022093A802109273
:101D1000B1021092B0021092B3021092B20210926D
:101D2000B5021092B40270E060E080EB92E00E9495
:101D3000E8092091B0023091B102811121C0211532
:101D4000310519F0C9010E9427121092B1021092B8
:101D5000B0021092B5021092B4021092B302109227
:101D6000B2028BE491E09093AB028093AA021092AE
:101D7000AC021092AD021092AE021092AF02089522
:101D80001092B5021092B40265E871E0C9010E9498
:101D90007613E7CFCF93DF93CDB7DEB728970FB693
:101DA000F894DEBF0FBECDBF789484B5826084BD49
:101DB00084B5816084BD85B5826085BD85B581604F
:101DC00085BD80916E00816080936E0010928100CD
:101DD0008091810082608093810080918100816088
:101DE0008093810080918000816080938000809149
:101DF0009100826080939100809191008160809336
:101E00009100809190008160809390008091C1004A
:101E100084608093C1008091C10082608093C10082
:101E20008091C10081608093C1008091C300816076
:101E30008093C3008091C00082608093C000809135
:101E4000C20081608093C20080917A008460809398
:101E50007A0080917A00826080937A0080917A0083
:101E6000816080937A0080917A00806880937A0004
:101E70001092A10110929201109291018091D700CD
:101E800081608093D70080EA8093D80089B5806113
:101E900089BD89B5826089BD09B400FEFDCF61E0CE
:101EA00070E080E090E00E9458048091D8008F7C20
:101EB00080618093D8008091E000807F8093E00073
:101EC0008091E1008E7E8093E1008DE08093E200BE
:101ED000559A209A61E08BE00E94020461E082E062
:101EE0000E94020461E083E00E94020461E084E059
:101EF0000E94020461E08AE00E94020461E089E03D
:101F00000E94020462E083E10E94020461E08CE02E
:101F10000E94020461E08DE00E94020462E082E11E
:101F20000E94020461E085E00E94020461E086E014
:101F30000E94020461E087E00E94020461E088E000
:101F40000E94020461E08BE00E94910360E082E065
:101F50000E94910360E083E00E94910360E084E0CE
:101F60000E94910361E08AE00E94910360E089E0B1
:101F70000E94910361E08CE00E94910361E08DE09A
:101F80000E94910360E085E00E94910360E086E09A
:101F90000E94910360E087E00E94910360E088E086
:101FA0000E9491031FB7F89480919301811127C07B
:101FB000E7E9F1E08491E8E7F1E09491E82FF0E0BF
:101FC000EE0FFF1FE75AFE4FA591B491EC91E92364
:101FD00021F461E081E10E94910361E081E10E94CE
:101FE00002048CB580618CBD8CB580648CBD61E0D1
:101FF0008FE00E94020461E080E10E94020480916F
:1020000093018F5F809393011FBF8FEF9FEF90939A
:10201000B3018093B20110910B016AE070E080E09F
:1020200090E00E9458041123B1F3E091A802F091CE
:10203000A902A089B18982E08C93A485B5851C9200
:10204000A685B78587E08C93108EA489B58986E034
:102050008C93A289B3898C9180618C93A289B38976
:102060008C9188608C93A289B3898C9180688C93C1
:102070000288F389E02D80818F7D80838FE992E053
:102080000E9483088091C2029091C3020E9483083B
:102090000E94710980E290E00E948B119093C70228
:1020A0008093C60221E6B22EB982CC24C394D12CEF
:1020B000CE0101967C0110E000E030E020E041E03C
:1020C00050E0BC018091C2029091C3020E948A0537
:1020D0008981813049F76FE571E086EB92E00E94DB
:1020E0008D0963E871E086EB92E00E948D0980E043
:1020F000E82E80E0F82E86EB92E00E946507809142
:10210000C402882309F47DC01A8219821C821B82B2
:102110001E821D8270E060E0CE0101960E94E809F7
:1021200029813A8181112EC02115310519F0C9018B
:102130000E9427121A8219821E821D821C821B8213
:102140000E94D80797FD26C08A30910519F18F8328
:1021500018860D811E810F5F1F4FB801CE010196B9
:102160000E94E809882361F329813A818D819E814B
:10217000BE01695F7F4F820F931F0E9476131E83FB
:102180000D83DECF1E821D8265E871E0C9010E94C9
:102190007613D6CF8091B0029091B102009709F4E6
:1021A00044C069817A8161157105E9F14091B202FB
:1021B0005091B3022D813E8142175307A0F10E9436
:1021C00076138D819E819093B5028093B4021E8216
:1021D0001D8289819A81009711F00E9427124091F7
:1021E000B4025091B5026091B0027091B10286EBD9
:1021F00092E00E94060763E871E086EB92E00E949D
:102200008D0964E670E080E090E00E945804E114DB
:10221000F10409F470CF0E946F02882309F46BCF98
:102220000E94000068CF0E94271289819A819093B2
:10223000B1028093B0028B819C819093B302809312
:10224000B2028D819E819093B5028093B4021A826E
:1022500019821C821B82BBCF2F923F924F925F92BA
:102260006F927F928F929F92AF92BF92CF92DF92A6
:10227000EF92FF920F931F93CF93DF93CDB7DEB70B
:10228000CA1BDB0B0FB6F894DEBF0FBECDBF09949F
:102290002A88398848885F846E847D848C849B84F6
:1022A000AA84B984C884DF80EE80FD800C811B8104
:1022B000AA81B981CE0FD11D0FB6F894DEBF0FBE33
:1022C000CDBFED010895A1E21A2EAA1BBB1BFD0193
:1022D0000DC0AA1FBB1FEE1FFF1FA217B307E40705
:1022E000F50720F0A21BB30BE40BF50B661F771F5D
:1022F000881F991F1A9469F760957095809590953D
:102300009B01AC01BD01CF010895EE0FFF1F0590A9
:10231000F491E02D09940F931F93CF93DF938230B4
:10232000910510F482E090E0E091CF02F091D002AC
:1023300030E020E0B0E0A0E0309799F421153105BD
:1023400009F44AC0281B390B24303105D8F58A819D
:102350009B816115710589F1FB0193838283FE01E5
:1023600011C0408151810281138148175907E0F063
:102370004817590799F4109761F012960C93129729
:1023800013961C933296CF01DF91CF911F910F913D
:1023900008950093CF021093D002F4CF2115310598
:1023A00051F04217530738F0A901DB019A01BD0132
:1023B000DF01F801C1CFEF01F9CF9093D0028093F4
:1023C000CF02CDCFFE01E20FF31F819391932250F4
:1023D000310939832883D7CF2091CD023091CE02A5
:1023E000232B41F420910E0130910F013093CE0246
:1023F0002093CD0220910C0130910D012115310562
:1024000041F42DB73EB74091100150911101241BAA
:10241000350BE091CD02F091CE02E217F307A0F464
:102420002E1B3F0B2817390778F0AC014E5F5F4F2A
:102430002417350748F04E0F5F1F5093CE0240938C
:10244000CD02819391939FCFF0E0E0E09CCFCF93BA
:10245000DF930097E9F0FC01329713821282A0917A
:10246000CF02B091D002ED0130E020E01097A1F44E
:1024700020813181820F931F2091CD023091CE02B5
:102480002817390709F061C0F093CE02E093CD021E
:10249000DF91CF910895EA01CE17DF07E8F54A8171
:1024A0005B819E0141155105B1F7E901FB83EA8388
:1024B00049915991C40FD51FEC17FD0761F4808134
:1024C00091810296840F951FE90199838883828107
:1024D00093819B838A83F0E0E0E012968D919C913A
:1024E00013970097B9F52D913C911197CD01029664
:1024F000820F931F2091CD023091CE022817390709
:1025000039F6309751F51092D0021092CF02B09365
:10251000CE02A093CD02BCCFD383C2834081518130
:10252000840F951FC817D90761F44E5F5F4F8881EC
:102530009981480F591F518340838A819B819383DE
:1025400082832115310509F0B0CFF093D002E093DA
:10255000CF029ECFFD01DC01C0CF13821282D7CF04
:10256000B0E0A0E0E6EBF2E10C942E118C010097B4
:1025700051F4CB010E948B118C01C801CDB7DEB79D
:10258000E0E10C944A11FC01E60FF71F9C01225078
:102590003109E217F30708F49DC0D901CD91DC9110
:1025A0001197C617D70798F0C530D10530F3CE0183
:1025B00004978617970708F3C61BD70B2297C1937A
:1025C000D1936D937C93CF010E942712D6CF5B01EC
:1025D000AC1ABD0A4C018C0E9D1EA091CF02B09189
:1025E000D002512C412CF12CE12C109731F5809127
:1025F000CD029091CE028815990509F05CC046166F
:10260000570608F058C080910C0190910D01009779
:1026100041F48DB79EB74091100150911101841B78
:10262000950BE817F90708F055C0F093CE02E09338
:10263000CD02F90171836083A0CF8D919C91119798
:1026400012966C90129713967C901397A815B90563
:1026500059F56C0142E0C40ED11CCA14DB0420F110
:10266000AC014A195B09DA011296159780F0628273
:10267000738251834083D9016D937C93E114F104FB
:1026800071F0D7011396FC93EE93129776CF2296B2
:102690008C0F9D1FF90191838083F301EFCFF0939D
:1026A000D002E093CF0269CF4816590608F42C01F6
:1026B0007D01D3019ACFCB010E948B117C01009741
:1026C00049F0AE01B8010E946D13C8010E942712A3
:1026D000870153CF10E000E050CFFB01DC0102C0C6
:1026E00001900D9241505040D8F70895FB01DC0154
:1026F00001900D920020E1F7089510E0C4EDD0E0C4
:1027000004C0FE010E9485112196C53DD107C9F77D
:04271000F894FFCF6B
:10271400FFFFFFFF00E10000000000000000D10205
:1027240080005858585858585831303000C180816A
:1027340000000000000000A40205023202F002635F
:1027440002410255020000000010038A04310326EE
:102754000377033503530300000000100A00000050
:1027640000430806070F052F089D07BD07A7075953
:102774006F7527726520636F6E6E65637465642080
:10278400746F2074686520436F6E736F6C652121CC
:062794002121000D0A00E6
:00000001FF
